{
  "contractName": "CV",
  "abi": [
    {
      "constant": false,
      "inputs": [
        {
          "name": "_language",
          "type": "string"
        }
      ],
      "name": "setLanguage",
      "outputs": [],
      "payable": false,
      "stateMutability": "nonpayable",
      "type": "function"
    },
    {
      "constant": true,
      "inputs": [],
      "name": "countJob",
      "outputs": [
        {
          "name": "",
          "type": "uint256"
        }
      ],
      "payable": false,
      "stateMutability": "view",
      "type": "function"
    },
    {
      "constant": true,
      "inputs": [],
      "name": "countCerts",
      "outputs": [
        {
          "name": "",
          "type": "uint256"
        }
      ],
      "payable": false,
      "stateMutability": "view",
      "type": "function"
    },
    {
      "constant": true,
      "inputs": [
        {
          "name": "_interestNumber",
          "type": "uint256"
        }
      ],
      "name": "getInterest",
      "outputs": [
        {
          "name": "",
          "type": "string"
        }
      ],
      "payable": false,
      "stateMutability": "view",
      "type": "function"
    },
    {
      "constant": true,
      "inputs": [
        {
          "name": "",
          "type": "uint256"
        }
      ],
      "name": "certificates",
      "outputs": [
        {
          "name": "",
          "type": "string"
        }
      ],
      "payable": false,
      "stateMutability": "view",
      "type": "function"
    },
    {
      "constant": true,
      "inputs": [],
      "name": "countLanguages",
      "outputs": [
        {
          "name": "",
          "type": "uint256"
        }
      ],
      "payable": false,
      "stateMutability": "view",
      "type": "function"
    },
    {
      "constant": true,
      "inputs": [],
      "name": "countSchool",
      "outputs": [
        {
          "name": "",
          "type": "uint256"
        }
      ],
      "payable": false,
      "stateMutability": "view",
      "type": "function"
    },
    {
      "constant": true,
      "inputs": [],
      "name": "getPersonalInfo",
      "outputs": [
        {
          "name": "",
          "type": "string"
        },
        {
          "name": "",
          "type": "string"
        },
        {
          "name": "",
          "type": "string"
        },
        {
          "name": "",
          "type": "uint256"
        },
        {
          "name": "",
          "type": "string"
        },
        {
          "name": "",
          "type": "string"
        }
      ],
      "payable": false,
      "stateMutability": "view",
      "type": "function"
    },
    {
      "constant": true,
      "inputs": [],
      "name": "owner",
      "outputs": [
        {
          "name": "",
          "type": "address"
        }
      ],
      "payable": false,
      "stateMutability": "view",
      "type": "function"
    },
    {
      "constant": false,
      "inputs": [
        {
          "name": "_employer",
          "type": "string"
        },
        {
          "name": "_beginDate",
          "type": "string"
        },
        {
          "name": "_endDate",
          "type": "string"
        },
        {
          "name": "_duties",
          "type": "string"
        }
      ],
      "name": "setJob",
      "outputs": [],
      "payable": false,
      "stateMutability": "nonpayable",
      "type": "function"
    },
    {
      "constant": true,
      "inputs": [
        {
          "name": "_certNumber",
          "type": "uint256"
        }
      ],
      "name": "getCert",
      "outputs": [
        {
          "name": "",
          "type": "string"
        }
      ],
      "payable": false,
      "stateMutability": "view",
      "type": "function"
    },
    {
      "constant": true,
      "inputs": [],
      "name": "countInterests",
      "outputs": [
        {
          "name": "",
          "type": "uint256"
        }
      ],
      "payable": false,
      "stateMutability": "view",
      "type": "function"
    },
    {
      "constant": true,
      "inputs": [
        {
          "name": "_job",
          "type": "uint256"
        }
      ],
      "name": "getJob",
      "outputs": [
        {
          "name": "",
          "type": "string"
        },
        {
          "name": "",
          "type": "string"
        },
        {
          "name": "",
          "type": "string"
        },
        {
          "name": "",
          "type": "string"
        }
      ],
      "payable": false,
      "stateMutability": "view",
      "type": "function"
    },
    {
      "constant": false,
      "inputs": [
        {
          "name": "_university",
          "type": "string"
        },
        {
          "name": "_beginDate",
          "type": "string"
        },
        {
          "name": "_endDate",
          "type": "string"
        },
        {
          "name": "_info",
          "type": "string"
        }
      ],
      "name": "setSchool",
      "outputs": [],
      "payable": false,
      "stateMutability": "nonpayable",
      "type": "function"
    },
    {
      "constant": false,
      "inputs": [
        {
          "name": "_name",
          "type": "string"
        },
        {
          "name": "_birth",
          "type": "string"
        },
        {
          "name": "_city",
          "type": "string"
        },
        {
          "name": "_phone",
          "type": "uint256"
        },
        {
          "name": "_email",
          "type": "string"
        },
        {
          "name": "_photo",
          "type": "string"
        }
      ],
      "name": "setPersonalInfo",
      "outputs": [],
      "payable": false,
      "stateMutability": "nonpayable",
      "type": "function"
    },
    {
      "constant": false,
      "inputs": [
        {
          "name": "_certName",
          "type": "string"
        }
      ],
      "name": "setCert",
      "outputs": [],
      "payable": false,
      "stateMutability": "nonpayable",
      "type": "function"
    },
    {
      "constant": false,
      "inputs": [
        {
          "name": "_interest",
          "type": "string"
        }
      ],
      "name": "setInterest",
      "outputs": [],
      "payable": false,
      "stateMutability": "nonpayable",
      "type": "function"
    },
    {
      "constant": true,
      "inputs": [
        {
          "name": "_school",
          "type": "uint256"
        }
      ],
      "name": "getSchool",
      "outputs": [
        {
          "name": "",
          "type": "string"
        },
        {
          "name": "",
          "type": "string"
        },
        {
          "name": "",
          "type": "string"
        },
        {
          "name": "",
          "type": "string"
        }
      ],
      "payable": false,
      "stateMutability": "view",
      "type": "function"
    },
    {
      "constant": false,
      "inputs": [
        {
          "name": "newOwner",
          "type": "address"
        }
      ],
      "name": "transferOwnership",
      "outputs": [],
      "payable": false,
      "stateMutability": "nonpayable",
      "type": "function"
    },
    {
      "constant": true,
      "inputs": [
        {
          "name": "_languageNumber",
          "type": "uint256"
        }
      ],
      "name": "getLanguage",
      "outputs": [
        {
          "name": "",
          "type": "string"
        }
      ],
      "payable": false,
      "stateMutability": "view",
      "type": "function"
    },
    {
      "anonymous": false,
      "inputs": [
        {
          "indexed": true,
          "name": "previousOwner",
          "type": "address"
        },
        {
          "indexed": true,
          "name": "newOwner",
          "type": "address"
        }
      ],
      "name": "OwnershipTransferred",
      "type": "event"
    }
  ],
  "bytecode": "0x606060405260006008556000600a55336000806101000a81548173ffffffffffffffffffffffffffffffffffffffff021916908373ffffffffffffffffffffffffffffffffffffffff1602179055506123fe8061005d6000396000f300606060405260043610610112576000357c0100000000000000000000000000000000000000000000000000000000900463ffffffff1680632921dc53146101175780634b7b6d9a14610174578063554660dc1461019d5780635fe2d689146101c6578063663b3e221461026257806369c6204d146102fe5780637b72f75a1461032757806381f539ff146103505780638da5cb5b14610595578063a28208f7146105ea578063b449e71614610710578063b4630356146107ac578063bf22c457146107d5578063c36d17e6146109b5578063c716551d14610adb578063ca5e7c6c14610c4d578063ce274c1e14610caa578063d38e7ea914610d07578063f2fde38b14610ee7578063f700e6e114610f20575b600080fd5b341561012257600080fd5b610172600480803590602001908201803590602001908080601f01602080910402602001604051908101604052809392919081815260200183838082843782019150505050505091905050610fbc565b005b341561017f57600080fd5b610187611059565b6040518082815260200191505060405180910390f35b34156101a857600080fd5b6101b0611063565b6040518082815260200191505060405180910390f35b34156101d157600080fd5b6101e76004808035906020019091905050611070565b6040518080602001828103825283818151815260200191508051906020019080838360005b8381101561022757808201518184015260208101905061020c565b50505050905090810190601f1680156102545780820380516001836020036101000a031916815260200191505b509250505060405180910390f35b341561026d57600080fd5b6102836004808035906020019091905050611135565b6040518080602001828103825283818151815260200191508051906020019080838360005b838110156102c35780820151818401526020810190506102a8565b50505050905090810190601f1680156102f05780820380516001836020036101000a031916815260200191505b509250505060405180910390f35b341561030957600080fd5b6103116111f1565b6040518082815260200191505060405180910390f35b341561033257600080fd5b61033a611201565b6040518082815260200191505060405180910390f35b341561035b57600080fd5b61036361120b565b60405180806020018060200180602001878152602001806020018060200186810386528c818151815260200191508051906020019080838360005b838110156103b957808201518184015260208101905061039e565b50505050905090810190601f1680156103e65780820380516001836020036101000a031916815260200191505b5086810385528b818151815260200191508051906020019080838360005b8381101561041f578082015181840152602081019050610404565b50505050905090810190601f16801561044c5780820380516001836020036101000a031916815260200191505b5086810384528a818151815260200191508051906020019080838360005b8381101561048557808201518184015260208101905061046a565b50505050905090810190601f1680156104b25780820380516001836020036101000a031916815260200191505b50868103835288818151815260200191508051906020019080838360005b838110156104eb5780820151818401526020810190506104d0565b50505050905090810190601f1680156105185780820380516001836020036101000a031916815260200191505b50868103825287818151815260200191508051906020019080838360005b83811015610551578082015181840152602081019050610536565b50505050905090810190601f16801561057e5780820380516001836020036101000a031916815260200191505b509b50505050505050505050505060405180910390f35b34156105a057600080fd5b6105a8611573565b604051808273ffffffffffffffffffffffffffffffffffffffff1673ffffffffffffffffffffffffffffffffffffffff16815260200191505060405180910390f35b34156105f557600080fd5b61070e600480803590602001908201803590602001908080601f0160208091040260200160405190810160405280939291908181526020018383808284378201915050505050509190803590602001908201803590602001908080601f0160208091040260200160405190810160405280939291908181526020018383808284378201915050505050509190803590602001908201803590602001908080601f0160208091040260200160405190810160405280939291908181526020018383808284378201915050505050509190803590602001908201803590602001908080601f01602080910402602001604051908101604052809392919081815260200183838082843782019150505050505091905050611598565b005b341561071b57600080fd5b6107316004808035906020019091905050611689565b6040518080602001828103825283818151815260200191508051906020019080838360005b83811015610771578082015181840152602081019050610756565b50505050905090810190601f16801561079e5780820380516001836020036101000a031916815260200191505b509250505060405180910390f35b34156107b757600080fd5b6107bf61174b565b6040518082815260200191505060405180910390f35b34156107e057600080fd5b6107f6600480803590602001909190505061175b565b6040518080602001806020018060200180602001858103855289818151815260200191508051906020019080838360005b83811015610842578082015181840152602081019050610827565b50505050905090810190601f16801561086f5780820380516001836020036101000a031916815260200191505b50858103845288818151815260200191508051906020019080838360005b838110156108a857808201518184015260208101905061088d565b50505050905090810190601f1680156108d55780820380516001836020036101000a031916815260200191505b50858103835287818151815260200191508051906020019080838360005b8381101561090e5780820151818401526020810190506108f3565b50505050905090810190601f16801561093b5780820380516001836020036101000a031916815260200191505b50858103825286818151815260200191508051906020019080838360005b83811015610974578082015181840152602081019050610959565b50505050905090810190601f1680156109a15780820380516001836020036101000a031916815260200191505b509850505050505050505060405180910390f35b34156109c057600080fd5b610ad9600480803590602001908201803590602001908080601f0160208091040260200160405190810160405280939291908181526020018383808284378201915050505050509190803590602001908201803590602001908080601f0160208091040260200160405190810160405280939291908181526020018383808284378201915050505050509190803590602001908201803590602001908080601f0160208091040260200160405190810160405280939291908181526020018383808284378201915050505050509190803590602001908201803590602001908080601f01602080910402602001604051908101604052809392919081815260200183838082843782019150505050505091905050611a52565b005b3415610ae657600080fd5b610c4b600480803590602001908201803590602001908080601f0160208091040260200160405190810160405280939291908181526020018383808284378201915050505050509190803590602001908201803590602001908080601f0160208091040260200160405190810160405280939291908181526020018383808284378201915050505050509190803590602001908201803590602001908080601f0160208091040260200160405190810160405280939291908181526020018383808284378201915050505050509190803590602001909190803590602001908201803590602001908080601f0160208091040260200160405190810160405280939291908181526020018383808284378201915050505050509190803590602001908201803590602001908080601f01602080910402602001604051908101604052809392919081815260200183838082843782019150505050505091905050611b43565b005b3415610c5857600080fd5b610ca8600480803590602001908201803590602001908080601f01602080910402602001604051908101604052809392919081815260200183838082843782019150505050505091905050611c31565b005b3415610cb557600080fd5b610d05600480803590602001908201803590602001908080601f01602080910402602001604051908101604052809392919081815260200183838082843782019150505050505091905050611ccb565b005b3415610d1257600080fd5b610d286004808035906020019091905050611d68565b6040518080602001806020018060200180602001858103855289818151815260200191508051906020019080838360005b83811015610d74578082015181840152602081019050610d59565b50505050905090810190601f168015610da15780820380516001836020036101000a031916815260200191505b50858103845288818151815260200191508051906020019080838360005b83811015610dda578082015181840152602081019050610dbf565b50505050905090810190601f168015610e075780820380516001836020036101000a031916815260200191505b50858103835287818151815260200191508051906020019080838360005b83811015610e40578082015181840152602081019050610e25565b50505050905090810190601f168015610e6d5780820380516001836020036101000a031916815260200191505b50858103825286818151815260200191508051906020019080838360005b83811015610ea6578082015181840152602081019050610e8b565b50505050905090810190601f168015610ed35780820380516001836020036101000a031916815260200191505b509850505050505050505060405180910390f35b3415610ef257600080fd5b610f1e600480803573ffffffffffffffffffffffffffffffffffffffff1690602001909190505061205f565b005b3415610f2b57600080fd5b610f4160048080359060200190919050506121b4565b6040518080602001828103825283818151815260200191508051906020019080838360005b83811015610f81578082015181840152602081019050610f66565b50505050905090810190601f168015610fae5780820380516001836020036101000a031916815260200191505b509250505060405180910390f35b6000809054906101000a900473ffffffffffffffffffffffffffffffffffffffff1673ffffffffffffffffffffffffffffffffffffffff163373ffffffffffffffffffffffffffffffffffffffff1614151561101757600080fd5b600c600101805480600101828161102e9190612279565b9160005260206000209001600083909190915090805190602001906110549291906122a5565b505050565b6000600854905090565b6000600b80549050905090565b611078612325565b600c6000018281548110151561108a57fe5b90600052602060002090018054600181600116156101000203166002900480601f0160208091040260200160405190810160405280929190818152602001828054600181600116156101000203166002900480156111295780601f106110fe57610100808354040283529160200191611129565b820191906000526020600020905b81548152906001019060200180831161110c57829003601f168201915b50505050509050919050565b600b8181548110151561114457fe5b90600052602060002090016000915090508054600181600116156101000203166002900480601f0160208091040260200160405190810160405280929190818152602001828054600181600116156101000203166002900480156111e95780601f106111be576101008083540402835291602001916111e9565b820191906000526020600020905b8154815290600101906020018083116111cc57829003601f168201915b505050505081565b6000600c60010180549050905090565b6000600a54905090565b611213612325565b61121b612325565b611223612325565b600061122d612325565b611235612325565b600160000160018001600160020160016003015460016004016001600501858054600181600116156101000203166002900480601f0160208091040260200160405190810160405280929190818152602001828054600181600116156101000203166002900480156112e85780601f106112bd576101008083540402835291602001916112e8565b820191906000526020600020905b8154815290600101906020018083116112cb57829003601f168201915b50505050509550848054600181600116156101000203166002900480601f0160208091040260200160405190810160405280929190818152602001828054600181600116156101000203166002900480156113845780601f1061135957610100808354040283529160200191611384565b820191906000526020600020905b81548152906001019060200180831161136757829003601f168201915b50505050509450838054600181600116156101000203166002900480601f0160208091040260200160405190810160405280929190818152602001828054600181600116156101000203166002900480156114205780601f106113f557610100808354040283529160200191611420565b820191906000526020600020905b81548152906001019060200180831161140357829003601f168201915b50505050509350818054600181600116156101000203166002900480601f0160208091040260200160405190810160405280929190818152602001828054600181600116156101000203166002900480156114bc5780601f10611491576101008083540402835291602001916114bc565b820191906000526020600020905b81548152906001019060200180831161149f57829003601f168201915b50505050509150808054600181600116156101000203166002900480601f0160208091040260200160405190810160405280929190818152602001828054600181600116156101000203166002900480156115585780601f1061152d57610100808354040283529160200191611558565b820191906000526020600020905b81548152906001019060200180831161153b57829003601f168201915b50505050509050955095509550955095509550909192939495565b6000809054906101000a900473ffffffffffffffffffffffffffffffffffffffff1681565b60008060009054906101000a900473ffffffffffffffffffffffffffffffffffffffff1673ffffffffffffffffffffffffffffffffffffffff163373ffffffffffffffffffffffffffffffffffffffff161415156115f557600080fd5b6007600060085481526020019081526020016000209050848160000190805190602001906116249291906122a5565b508381600101908051906020019061163d9291906122a5565b50828160020190805190602001906116569291906122a5565b508181600301908051906020019061166f9291906122a5565b506008600081548092919060010191905055505050505050565b611691612325565b600b828154811015156116a057fe5b90600052602060002090018054600181600116156101000203166002900480601f01602080910402602001604051908101604052809291908181526020018280546001816001161561010002031660029004801561173f5780601f106117145761010080835404028352916020019161173f565b820191906000526020600020905b81548152906001019060200180831161172257829003601f168201915b50505050509050919050565b6000600c60000180549050905090565b611763612325565b61176b612325565b611773612325565b61177b612325565b60076000868152602001908152602001600020600001600760008781526020019081526020016000206001016007600088815260200190815260200160002060020160076000898152602001908152602001600020600301838054600181600116156101000203166002900480601f0160208091040260200160405190810160405280929190818152602001828054600181600116156101000203166002900480156118685780601f1061183d57610100808354040283529160200191611868565b820191906000526020600020905b81548152906001019060200180831161184b57829003601f168201915b50505050509350828054600181600116156101000203166002900480601f0160208091040260200160405190810160405280929190818152602001828054600181600116156101000203166002900480156119045780601f106118d957610100808354040283529160200191611904565b820191906000526020600020905b8154815290600101906020018083116118e757829003601f168201915b50505050509250818054600181600116156101000203166002900480601f0160208091040260200160405190810160405280929190818152602001828054600181600116156101000203166002900480156119a05780601f10611975576101008083540402835291602001916119a0565b820191906000526020600020905b81548152906001019060200180831161198357829003601f168201915b50505050509150808054600181600116156101000203166002900480601f016020809104026020016040519081016040528092919081815260200182805460018160011615610100020316600290048015611a3c5780601f10611a1157610100808354040283529160200191611a3c565b820191906000526020600020905b815481529060010190602001808311611a1f57829003601f168201915b5050505050905093509350935093509193509193565b60008060009054906101000a900473ffffffffffffffffffffffffffffffffffffffff1673ffffffffffffffffffffffffffffffffffffffff163373ffffffffffffffffffffffffffffffffffffffff16141515611aaf57600080fd5b60096000600a548152602001908152602001600020905084816000019080519060200190611ade9291906122a5565b5083816001019080519060200190611af79291906122a5565b5082816002019080519060200190611b109291906122a5565b5081816003019080519060200190611b299291906122a5565b50600a600081548092919060010191905055505050505050565b6000809054906101000a900473ffffffffffffffffffffffffffffffffffffffff1673ffffffffffffffffffffffffffffffffffffffff163373ffffffffffffffffffffffffffffffffffffffff16141515611b9e57600080fd5b8560016000019080519060200190611bb79291906122a5565b5084600180019080519060200190611bd09291906122a5565b508360016002019080519060200190611bea9291906122a5565b50826001600301819055508160016004019080519060200190611c0e9291906122a5565b508060016005019080519060200190611c289291906122a5565b50505050505050565b6000809054906101000a900473ffffffffffffffffffffffffffffffffffffffff1673ffffffffffffffffffffffffffffffffffffffff163373ffffffffffffffffffffffffffffffffffffffff16141515611c8c57600080fd5b600b8054806001018281611ca09190612279565b916000526020600020900160008390919091509080519060200190611cc69291906122a5565b505050565b6000809054906101000a900473ffffffffffffffffffffffffffffffffffffffff1673ffffffffffffffffffffffffffffffffffffffff163373ffffffffffffffffffffffffffffffffffffffff16141515611d2657600080fd5b600c6000018054806001018281611d3d9190612279565b916000526020600020900160008390919091509080519060200190611d639291906122a5565b505050565b611d70612325565b611d78612325565b611d80612325565b611d88612325565b60096000868152602001908152602001600020600001600960008781526020019081526020016000206001016009600088815260200190815260200160002060020160096000898152602001908152602001600020600301838054600181600116156101000203166002900480601f016020809104026020016040519081016040528092919081815260200182805460018160011615610100020316600290048015611e755780601f10611e4a57610100808354040283529160200191611e75565b820191906000526020600020905b815481529060010190602001808311611e5857829003601f168201915b50505050509350828054600181600116156101000203166002900480601f016020809104026020016040519081016040528092919081815260200182805460018160011615610100020316600290048015611f115780601f10611ee657610100808354040283529160200191611f11565b820191906000526020600020905b815481529060010190602001808311611ef457829003601f168201915b50505050509250818054600181600116156101000203166002900480601f016020809104026020016040519081016040528092919081815260200182805460018160011615610100020316600290048015611fad5780601f10611f8257610100808354040283529160200191611fad565b820191906000526020600020905b815481529060010190602001808311611f9057829003601f168201915b50505050509150808054600181600116156101000203166002900480601f0160208091040260200160405190810160405280929190818152602001828054600181600116156101000203166002900480156120495780601f1061201e57610100808354040283529160200191612049565b820191906000526020600020905b81548152906001019060200180831161202c57829003601f168201915b5050505050905093509350935093509193509193565b6000809054906101000a900473ffffffffffffffffffffffffffffffffffffffff1673ffffffffffffffffffffffffffffffffffffffff163373ffffffffffffffffffffffffffffffffffffffff161415156120ba57600080fd5b600073ffffffffffffffffffffffffffffffffffffffff168173ffffffffffffffffffffffffffffffffffffffff16141515156120f657600080fd5b8073ffffffffffffffffffffffffffffffffffffffff166000809054906101000a900473ffffffffffffffffffffffffffffffffffffffff1673ffffffffffffffffffffffffffffffffffffffff167f8be0079c531659141344cd1fd0a4f28419497f9722a3daafe3b4186f6b6457e060405160405180910390a3806000806101000a81548173ffffffffffffffffffffffffffffffffffffffff021916908373ffffffffffffffffffffffffffffffffffffffff16021790555050565b6121bc612325565b600c600101828154811015156121ce57fe5b90600052602060002090018054600181600116156101000203166002900480601f01602080910402602001604051908101604052809291908181526020018280546001816001161561010002031660029004801561226d5780601f106122425761010080835404028352916020019161226d565b820191906000526020600020905b81548152906001019060200180831161225057829003601f168201915b50505050509050919050565b8154818355818115116122a05781836000526020600020918201910161229f9190612339565b5b505050565b828054600181600116156101000203166002900490600052602060002090601f016020900481019282601f106122e657805160ff1916838001178555612314565b82800160010185558215612314579182015b828111156123135782518255916020019190600101906122f8565b5b5090506123219190612365565b5090565b602060405190810160405280600081525090565b61236291905b8082111561235e5760008181612355919061238a565b5060010161233f565b5090565b90565b61238791905b8082111561238357600081600090555060010161236b565b5090565b90565b50805460018160011615610100020316600290046000825580601f106123b057506123cf565b601f0160209004906000526020600020908101906123ce9190612365565b5b505600a165627a7a7230582046a124fd900fe70c25646aa224e7bc50c9e6d62c1205682c78b5fec96740c97d0029",
  "source": "pragma solidity ^0.4.18;\r\nimport \"zeppelin-solidity/contracts/ownership/Ownable.sol\";\r\n\r\ncontract CV is Ownable {\r\n\r\n        struct PersonalInfo {\r\n            string name;\r\n            string birth;\r\n            string city;\r\n            uint phone;\r\n            string email;\r\n            string photo;\r\n        }\r\n        PersonalInfo personalInfo;\r\n\r\n        struct Job {\r\n            string employer;\r\n            string beginDate;\r\n            string endDate;\r\n            string duties;\r\n        }\r\n        mapping (uint => Job) workExperience;\r\n        uint jobCounter = 0;\r\n\r\n        struct School {\r\n            string university;\r\n            string beginDate;\r\n            string endDate;\r\n            string info;\r\n        }\r\n        mapping (uint => School) Education;\r\n        uint schoolCounter = 0;\r\n        \r\n        string[] public certificates;\r\n        \r\n        struct ExtraInfo {\r\n            string[] interests;\r\n            string[] languages;\r\n        }\r\n        ExtraInfo extraInfo;\r\n\r\n    function setPersonalInfo(string _name, string _birth, string _city, uint _phone, string _email, string _photo) onlyOwner() public {\r\n        personalInfo.name = _name;\r\n        personalInfo.birth = _birth;\r\n        personalInfo.city = _city;\r\n        personalInfo.phone = _phone;\r\n        personalInfo.email = _email;\r\n        personalInfo.photo = _photo;\r\n    }\r\n\r\n    function getPersonalInfo() view public returns (string, string, string, uint, string, string) {\r\n        return (personalInfo.name, personalInfo.birth, personalInfo.city, personalInfo.phone, personalInfo.email, personalInfo.photo);\r\n    }\r\n\r\n    function setJob(string _employer, string _beginDate, string _endDate, string _duties) onlyOwner() public {\r\n        var job = workExperience[jobCounter];\r\n\r\n        job.employer = _employer;\r\n        job.beginDate = _beginDate;\r\n        job.endDate = _endDate;\r\n        job.duties = _duties;\r\n\r\n        jobCounter++;\r\n    }\r\n\r\n    function countJob() view public returns (uint) {\r\n        return jobCounter;\r\n    }\r\n\r\n    function getJob(uint _job) view public returns (string, string, string, string) {\r\n        return (workExperience[_job].employer, workExperience[_job].beginDate, workExperience[_job].endDate, workExperience[_job].duties);\r\n    }\r\n\r\n    function setSchool(string _university, string _beginDate, string _endDate, string _info) onlyOwner() public {\r\n        var school = Education[schoolCounter];\r\n\r\n        school.university = _university;\r\n        school.beginDate = _beginDate;\r\n        school.endDate = _endDate;\r\n        school.info = _info;\r\n\r\n        schoolCounter++;\r\n    }\r\n\r\n    function countSchool() view public returns (uint) {\r\n        return schoolCounter;\r\n    }\r\n\r\n    function getSchool(uint _school) view public returns (string, string, string, string) {\r\n        return (Education[_school].university, Education[_school].beginDate, Education[_school].endDate, Education[_school].info);\r\n    }\r\n\r\n    function setCert(string _certName) onlyOwner() public {\r\n        certificates.push(_certName);\r\n    }\r\n\r\n    function getCert(uint _certNumber) view public returns (string) {\r\n        return certificates[_certNumber];\r\n    }\r\n\r\n    function countCerts() view public returns (uint) {\r\n        return certificates.length;\r\n    }\r\n\r\n    function setInterest(string _interest) onlyOwner() public {\r\n        extraInfo.interests.push(_interest);\r\n    }\r\n\r\n    function getInterest(uint _interestNumber) view public returns (string) {\r\n        return extraInfo.interests[_interestNumber];\r\n    }\r\n    function countInterests() view public returns (uint) {\r\n        return extraInfo.interests.length;\r\n    }\r\n\r\n    function setLanguage(string _language) onlyOwner() public {\r\n        extraInfo.languages.push(_language);\r\n    }\r\n\r\n    function getLanguage(uint _languageNumber) view public returns (string) {\r\n        return extraInfo.languages[_languageNumber];\r\n    }\r\n    function countLanguages() view public returns (uint) {\r\n        return extraInfo.languages.length;\r\n    }\r\n\r\n}",
  "sourcePath": "C:\\Users\\sudol\\Desktop\\BLC\\cv3\\contracts\\CV.sol",
  "compiler": {
    "name": "solc",
    "version": "0.4.18+commit.9cf6e910.Emscripten.clang"
  },
  "schemaVersion": "1.0.1",
  "updatedAt": "2018-02-01T21:02:57.181Z"
}